{
  "contractName": "ArtAuction",
  "abi": [
    {
      "constant": true,
      "inputs": [
        {
          "name": "",
          "type": "uint256"
        }
      ],
      "name": "auctions",
      "outputs": [
        {
          "name": "itemId",
          "type": "uint256"
        },
        {
          "name": "highestBid",
          "type": "uint256"
        },
        {
          "name": "highestBidder",
          "type": "address"
        },
        {
          "name": "isActive",
          "type": "bool"
        },
        {
          "name": "endTime",
          "type": "uint256"
        }
      ],
      "payable": false,
      "stateMutability": "view",
      "type": "function"
    },
    {
      "constant": true,
      "inputs": [],
      "name": "itemCount",
      "outputs": [
        {
          "name": "",
          "type": "uint256"
        }
      ],
      "payable": false,
      "stateMutability": "view",
      "type": "function"
    },
    {
      "constant": true,
      "inputs": [
        {
          "name": "",
          "type": "uint256"
        }
      ],
      "name": "items",
      "outputs": [
        {
          "name": "id",
          "type": "uint256"
        },
        {
          "name": "name",
          "type": "string"
        },
        {
          "name": "description",
          "type": "string"
        },
        {
          "name": "minBid",
          "type": "uint256"
        },
        {
          "name": "owner",
          "type": "address"
        },
        {
          "name": "isSold",
          "type": "bool"
        }
      ],
      "payable": false,
      "stateMutability": "view",
      "type": "function"
    },
    {
      "anonymous": false,
      "inputs": [
        {
          "indexed": true,
          "name": "itemId",
          "type": "uint256"
        },
        {
          "indexed": false,
          "name": "endTime",
          "type": "uint256"
        }
      ],
      "name": "AuctionStarted",
      "type": "event"
    },
    {
      "anonymous": false,
      "inputs": [
        {
          "indexed": true,
          "name": "itemId",
          "type": "uint256"
        },
        {
          "indexed": false,
          "name": "bidder",
          "type": "address"
        },
        {
          "indexed": false,
          "name": "bidAmount",
          "type": "uint256"
        }
      ],
      "name": "NewHighestBid",
      "type": "event"
    },
    {
      "anonymous": false,
      "inputs": [
        {
          "indexed": true,
          "name": "itemId",
          "type": "uint256"
        },
        {
          "indexed": false,
          "name": "winner",
          "type": "address"
        },
        {
          "indexed": false,
          "name": "bidAmount",
          "type": "uint256"
        }
      ],
      "name": "AuctionEnded",
      "type": "event"
    },
    {
      "constant": false,
      "inputs": [
        {
          "name": "_name",
          "type": "string"
        },
        {
          "name": "_description",
          "type": "string"
        },
        {
          "name": "_minBid",
          "type": "uint256"
        }
      ],
      "name": "createItem",
      "outputs": [],
      "payable": false,
      "stateMutability": "nonpayable",
      "type": "function"
    },
    {
      "constant": false,
      "inputs": [
        {
          "name": "_itemId",
          "type": "uint256"
        },
        {
          "name": "_duration",
          "type": "uint256"
        }
      ],
      "name": "startAuction",
      "outputs": [],
      "payable": false,
      "stateMutability": "nonpayable",
      "type": "function"
    },
    {
      "constant": false,
      "inputs": [
        {
          "name": "_itemId",
          "type": "uint256"
        }
      ],
      "name": "bid",
      "outputs": [],
      "payable": true,
      "stateMutability": "payable",
      "type": "function"
    },
    {
      "constant": false,
      "inputs": [
        {
          "name": "_itemId",
          "type": "uint256"
        }
      ],
      "name": "endAuction",
      "outputs": [],
      "payable": false,
      "stateMutability": "nonpayable",
      "type": "function"
    },
    {
      "constant": true,
      "inputs": [
        {
          "name": "_itemId",
          "type": "uint256"
        }
      ],
      "name": "getItem",
      "outputs": [
        {
          "name": "id",
          "type": "uint256"
        },
        {
          "name": "name",
          "type": "string"
        },
        {
          "name": "description",
          "type": "string"
        },
        {
          "name": "minBid",
          "type": "uint256"
        },
        {
          "name": "owner",
          "type": "address"
        },
        {
          "name": "isSold",
          "type": "bool"
        }
      ],
      "payable": false,
      "stateMutability": "view",
      "type": "function"
    },
    {
      "constant": true,
      "inputs": [
        {
          "name": "_itemId",
          "type": "uint256"
        }
      ],
      "name": "getAuction",
      "outputs": [
        {
          "name": "itemId",
          "type": "uint256"
        },
        {
          "name": "highestBid",
          "type": "uint256"
        },
        {
          "name": "highestBidder",
          "type": "address"
        },
        {
          "name": "isActive",
          "type": "bool"
        },
        {
          "name": "endTime",
          "type": "uint256"
        }
      ],
      "payable": false,
      "stateMutability": "view",
      "type": "function"
    }
  ],
  "bytecode": "0x608060405234801561001057600080fd5b50610ead806100206000396000f3006080604052600436106100985763ffffffff7c01000000000000000000000000000000000000000000000000000000006000350416633129e773811461009d578063454a2ab3146101c55780634fee13fc146101d2578063571a26a0146101ed5780635fb6161c1461023a5780636bfb0d01146102d357806378bd7935146102fa578063b9a2de3a14610312578063bfb231d21461032a575b600080fd5b3480156100a957600080fd5b506100b5600435610342565b60405180878152602001806020018060200186815260200185600160a060020a0316600160a060020a0316815260200184151515158152602001838103835288818151815260200191508051906020019080838360005b8381101561012457818101518382015260200161010c565b50505050905090810190601f1680156101515780820380516001836020036101000a031916815260200191505b50838103825287518152875160209182019189019080838360005b8381101561018457818101518382015260200161016c565b50505050905090810190601f1680156101b15780820380516001836020036101000a031916815260200191505b509850505050505050505060405180910390f35b6101d06004356104ba565b005b3480156101de57600080fd5b506101d06004356024356106cb565b3480156101f957600080fd5b506102056004356108ac565b604080519586526020860194909452600160a060020a0390921684840152151560608401526080830152519081900360a00190f35b34801561024657600080fd5b506040805160206004803580820135601f81018490048402850184019095528484526101d094369492936024939284019190819084018382808284375050604080516020601f89358b018035918201839004830284018301909452808352979a99988101979196509182019450925082915084018382808284375094975050933594506108eb9350505050565b3480156102df57600080fd5b506102e86109db565b60408051918252519081900360200190f35b34801561030657600080fd5b506102056004356109e1565b34801561031e57600080fd5b506101d0600435610a1e565b34801561033657600080fd5b506100b5600435610c8d565b60008181526001602081815260408084208054600382015460048301548387018054865160026101009a8316159a909a0260001901909116899004601f810189900489028201890190975286815260609889988b988998899890979096938801949093600160a060020a0381169360a060020a90910460ff1692879183018282801561040f5780601f106103e45761010080835404028352916020019161040f565b820191906000526020600020905b8154815290600101906020018083116103f257829003601f168201915b5050875460408051602060026001851615610100026000190190941693909304601f8101849004840282018401909252818152959a508994509250840190508282801561049d5780601f106104725761010080835404028352916020019161049d565b820191906000526020600020905b81548152906001019060200180831161048057829003601f168201915b505050505093509650965096509650965096505091939550919395565b60008181526002602081905260409091209081015460a060020a900460ff16151561052f576040805160e560020a62461bcd02815260206004820152601560248201527f41756374696f6e206973206e6f74206163746976650000000000000000000000604482015290519081900360640190fd5b6003810154421061058a576040805160e560020a62461bcd02815260206004820152601160248201527f41756374696f6e2068617320656e646564000000000000000000000000000000604482015290519081900360640190fd5b6001810154341161060b576040805160e560020a62461bcd02815260206004820152602b60248201527f426964206d75737420626520686967686572207468616e2063757272656e742060448201527f6869676865737420626964000000000000000000000000000000000000000000606482015290519081900360840190fd5b6002810154600160a060020a0316156106605760028101546001820154604051600160a060020a039092169181156108fc0291906000818181858888f1935050505015801561065e573d6000803e3d6000fd5b505b346001820181905560028201805473ffffffffffffffffffffffffffffffffffffffff191633908117909155604080519182526020820192909252815184927ff13cb67d4c8841d2c893b242b7d61382d8e3bb53c5c58a8584106e74e8c4721b928290030190a25050565b60008281526001602052604090206004810154600160a060020a03163314610762576040805160e560020a62461bcd028152602060048201526024808201527f4f6e6c7920746865206f776e65722063616e207374617274207468652061756360448201527f74696f6e00000000000000000000000000000000000000000000000000000000606482015290519081900360840190fd5b600481015460a060020a900460ff16156107c6576040805160e560020a62461bcd02815260206004820152601460248201527f4974656d20697320616c726561647920736f6c64000000000000000000000000604482015290519081900360640190fd5b6040805160a08101825284815260038084015460208084019182526000848601818152600160608701818152428b01608089019081528c85526002808752948a902098518955955191880191909155905191860180549151151560a060020a0274ff000000000000000000000000000000000000000019600160a060020a039490941673ffffffffffffffffffffffffffffffffffffffff1990931692909217929092161790559051929091018290558251918252915185927ff8910119ddbef5440c54532457dfe8250a10ed39e583292818f44724b9e1344c928290030190a2505050565b60026020819052600091825260409091208054600182015492820154600390920154909291600160a060020a0381169160a060020a90910460ff169085565b6000805460019081018083556040805160c08101825282815260208082018981528284018990526060830188905233608084015260a08301879052938652848152919094208451815591518051929361094c93908501929190910190610de6565b5060408201518051610968916002840191602090910190610de6565b506060820151600382015560808201516004909101805460a090930151151560a060020a0274ff000000000000000000000000000000000000000019600160a060020a0390931673ffffffffffffffffffffffffffffffffffffffff199094169390931791909116919091179055505050565b60005481565b600090815260026020819052604090912080546001820154928201546003909201549093600160a060020a0383169260a060020a900460ff169190565b600081815260026020818152604080842060019092529092209082015460a060020a900460ff161515610a9b576040805160e560020a62461bcd02815260206004820152601560248201527f41756374696f6e206973206e6f74206163746976650000000000000000000000604482015290519081900360640190fd5b6003820154421015610af7576040805160e560020a62461bcd02815260206004820152601960248201527f41756374696f6e20686173206e6f7420656e6465642079657400000000000000604482015290519081900360640190fd5b6004810154600160a060020a03163314610b81576040805160e560020a62461bcd02815260206004820152602260248201527f4f6e6c7920746865206f776e65722063616e20656e642074686520617563746960448201527f6f6e000000000000000000000000000000000000000000000000000000000000606482015290519081900360840190fd5b60028201805474ff000000000000000000000000000000000000000019908116825560048301805490911660a060020a17905554600160a060020a031615610c385760048101546001830154604051600160a060020a039092169181156108fc0291906000818181858888f19350505050158015610c03573d6000803e3d6000fd5b50600282015460048201805473ffffffffffffffffffffffffffffffffffffffff1916600160a060020a039092169190911790555b6002820154600183015460408051600160a060020a0390931683526020830191909152805185927fd2aa34a4fdbbc6dff6a3e56f46e0f3ae2a31d7785ff3487aa5c95c642acea50192908290030190a2505050565b600160208181526000928352604092839020805481840180548651600296821615610100026000190190911695909504601f81018590048502860185019096528585529094919392909190830182828015610d295780601f10610cfe57610100808354040283529160200191610d29565b820191906000526020600020905b815481529060010190602001808311610d0c57829003601f168201915b50505060028085018054604080516020601f6000196101006001871615020190941695909504928301859004850281018501909152818152959695945090925090830182828015610dbb5780601f10610d9057610100808354040283529160200191610dbb565b820191906000526020600020905b815481529060010190602001808311610d9e57829003601f168201915b505050506003830154600490930154919291600160a060020a038116915060a060020a900460ff1686565b828054600181600116156101000203166002900490600052602060002090601f016020900481019282601f10610e2757805160ff1916838001178555610e54565b82800160010185558215610e54579182015b82811115610e54578251825591602001919060010190610e39565b50610e60929150610e64565b5090565b610e7e91905b80821115610e605760008155600101610e6a565b905600a165627a7a72305820bf1737196b21e76bbc27247e8416d017777a37b2811b4047c287ce40672ba2660029",
  "source": "pragma solidity ^0.4.24;\n\ncontract ArtAuction {\n    struct Item {\n        uint256 id;\n        string name;\n        string description;\n        uint256 minBid;\n        address owner; // Changed from address payable\n        bool isSold;\n    }\n\n    struct Auction {\n        uint256 itemId;\n        uint256 highestBid;\n        address highestBidder; // Changed from address payable\n        bool isActive;\n        uint256 endTime;\n    }\n\n    uint256 public itemCount;\n    mapping(uint256 => Item) public items;\n    mapping(uint256 => Auction) public auctions;\n\n    event AuctionStarted(uint256 indexed itemId, uint256 endTime);\n    event NewHighestBid(uint256 indexed itemId, address bidder, uint256 bidAmount);\n    event AuctionEnded(uint256 indexed itemId, address winner, uint256 bidAmount);\n\n    function createItem(string _name, string _description, uint256 _minBid) public {\n        itemCount++;\n        items[itemCount] = Item(itemCount, _name, _description, _minBid, msg.sender, false);\n    }\n\n    function startAuction(uint256 _itemId, uint256 _duration) public {\n        Item storage item = items[_itemId];\n        require(item.owner == msg.sender, \"Only the owner can start the auction\");\n        require(!item.isSold, \"Item is already sold\");\n\n        auctions[_itemId] = Auction(\n            _itemId,\n            item.minBid,\n            address(0),\n            true,\n            now + _duration\n        );\n\n        emit AuctionStarted(_itemId, auctions[_itemId].endTime);\n    }\n\n    function bid(uint256 _itemId) public payable {\n        Auction storage auction = auctions[_itemId];\n        require(auction.isActive, \"Auction is not active\");\n        require(now < auction.endTime, \"Auction has ended\");\n        require(msg.value > auction.highestBid, \"Bid must be higher than current highest bid\");\n\n        // Refund the previous highest bidder\n        if (auction.highestBidder != address(0)) {\n            auction.highestBidder.transfer(auction.highestBid);\n        }\n\n        // Update the auction with the new highest bid\n        auction.highestBid = msg.value;\n        auction.highestBidder = msg.sender;\n\n        emit NewHighestBid(_itemId, msg.sender, msg.value);\n    }\n\n    function endAuction(uint256 _itemId) public {\n        Auction storage auction = auctions[_itemId];\n        Item storage item = items[_itemId];\n        require(auction.isActive, \"Auction is not active\");\n        require(now >= auction.endTime, \"Auction has not ended yet\");\n        require(msg.sender == item.owner, \"Only the owner can end the auction\");\n\n        auction.isActive = false;\n        item.isSold = true;\n\n        // Transfer the funds to the seller\n        if (auction.highestBidder != address(0)) {\n            item.owner.transfer(auction.highestBid);\n            // Transfer ownership of the item to the highest bidder\n            item.owner = auction.highestBidder;\n        }\n\n        emit AuctionEnded(_itemId, auction.highestBidder, auction.highestBid);\n    }\n\n    function getItem(uint256 _itemId) public view returns (\n        uint256 id,\n        string name,\n        string description,\n        uint256 minBid,\n        address owner,\n        bool isSold\n    ) {\n        Item storage item = items[_itemId];\n        return (item.id, item.name, item.description, item.minBid, item.owner, item.isSold);\n    }\n\n    function getAuction(uint256 _itemId) public view returns (\n        uint256 itemId,\n        uint256 highestBid,\n        address highestBidder,\n        bool isActive,\n        uint256 endTime\n    ) {\n        Auction storage auction = auctions[_itemId];\n        return (auction.itemId, auction.highestBid, auction.highestBidder, auction.isActive, auction.endTime);\n    }\n}",
  "sourcePath": "/Users/lauchlan/Desktop/FTEC_FYP/Art Auction/contracts/ArtAuction.sol",
  "compiler": {
    "name": "solc",
    "version": "0.4.24+commit.e67f0147.Emscripten.clang"
  },
  "schemaVersion": "3.4.16",
  "updatedAt": "2024-10-16T06:27:46.598Z",
  "devdoc": {
    "methods": {}
  },
  "userdoc": {
    "methods": {}
  }
}