{
  "contractName": "ArtMarketplace",
  "abi": [
    {
      "constant": true,
      "inputs": [
        {
          "name": "",
          "type": "uint256"
        }
      ],
      "name": "artItems",
      "outputs": [
        {
          "name": "id",
          "type": "uint256"
        },
        {
          "name": "name",
          "type": "string"
        },
        {
          "name": "description",
          "type": "string"
        },
        {
          "name": "price",
          "type": "uint256"
        },
        {
          "name": "owner",
          "type": "address"
        },
        {
          "name": "isSold",
          "type": "bool"
        }
      ],
      "payable": false,
      "stateMutability": "view",
      "type": "function"
    },
    {
      "constant": true,
      "inputs": [],
      "name": "tokenContract",
      "outputs": [
        {
          "name": "",
          "type": "address"
        }
      ],
      "payable": false,
      "stateMutability": "view",
      "type": "function"
    },
    {
      "constant": true,
      "inputs": [],
      "name": "artCount",
      "outputs": [
        {
          "name": "",
          "type": "uint256"
        }
      ],
      "payable": false,
      "stateMutability": "view",
      "type": "function"
    },
    {
      "inputs": [
        {
          "name": "_tokenContract",
          "type": "address"
        }
      ],
      "payable": false,
      "stateMutability": "nonpayable",
      "type": "constructor"
    },
    {
      "anonymous": false,
      "inputs": [
        {
          "indexed": true,
          "name": "artId",
          "type": "uint256"
        },
        {
          "indexed": true,
          "name": "buyer",
          "type": "address"
        },
        {
          "indexed": false,
          "name": "price",
          "type": "uint256"
        }
      ],
      "name": "ArtPurchased",
      "type": "event"
    },
    {
      "constant": false,
      "inputs": [
        {
          "name": "_artId",
          "type": "uint256"
        }
      ],
      "name": "purchaseArt",
      "outputs": [],
      "payable": false,
      "stateMutability": "nonpayable",
      "type": "function"
    },
    {
      "constant": true,
      "inputs": [
        {
          "name": "_artId",
          "type": "uint256"
        }
      ],
      "name": "getArtItem",
      "outputs": [
        {
          "name": "id",
          "type": "uint256"
        },
        {
          "name": "name",
          "type": "string"
        },
        {
          "name": "description",
          "type": "string"
        },
        {
          "name": "price",
          "type": "uint256"
        },
        {
          "name": "owner",
          "type": "address"
        },
        {
          "name": "isSold",
          "type": "bool"
        }
      ],
      "payable": false,
      "stateMutability": "view",
      "type": "function"
    }
  ],
  "bytecode": "0x60806040526000805534801561001457600080fd5b50604051602080610c93833981016040818152915160028054600160a060020a031916600160a060020a0383161790558282018352600982527f4d6f6e61204c69736100000000000000000000000000000000000000000000006020808401919091528351606081018552602281527f41206d61737465727069656365206279204c656f6e6172646f2064612056696e918101919091527f636900000000000000000000000000000000000000000000000000000000000093810193909352916100e991906064640100000000610220810204565b6101956040805190810160405280600c81526020017f537461727279204e696768740000000000000000000000000000000000000000815250606060405190810160405280602581526020017f412066616d6f7573207061696e74696e672062792056696e63656e742076616e81526020017f20476f67680000000000000000000000000000000000000000000000000000008152506050610220640100000000026401000000009004565b61021a6040805190810160405280600a81526020017f5468652053637265616d000000000000000000000000000000000000000000008152506040805190810160405280601e81526020017f416e2069636f6e696320776f726b20627920456476617264204d756e63680000815250603c610220640100000000026401000000009004565b506103a1565b6000805460019081018083556040805160c08101825282815260208082018981528284018990526060830188905230608084015260a08301879052938652848152919094208451815591518051929361028193908501929190910190610306565b506040820151805161029d916002840191602090910190610306565b506060820151600382015560808201516004909101805460a0909301511515740100000000000000000000000000000000000000000260a060020a60ff0219600160a060020a03909316600160a060020a03199094169390931791909116919091179055505050565b828054600181600116156101000203166002900490600052602060002090601f016020900481019282601f1061034757805160ff1916838001178555610374565b82800160010185558215610374579182015b82811115610374578251825591602001919060010190610359565b50610380929150610384565b5090565b61039e91905b80821115610380576000815560010161038a565b90565b6108e3806103b06000396000f30060806040526004361061006c5763ffffffff7c010000000000000000000000000000000000000000000000000000000060003504166321f004eb81146100715780634ab48a871461019957806355a373d6146101b157806359e91e3c146101e2578063d3b3e9b0146101fc575b600080fd5b34801561007d57600080fd5b50610089600435610223565b60405180878152602001806020018060200186815260200185600160a060020a0316600160a060020a0316815260200184151515158152602001838103835288818151815260200191508051906020019080838360005b838110156100f85781810151838201526020016100e0565b50505050905090810190601f1680156101255780820380516001836020036101000a031916815260200191505b50838103825287518152875160209182019189019080838360005b83811015610158578181015183820152602001610140565b50505050905090810190601f1680156101855780820380516001836020036101000a031916815260200191505b509850505050505050505060405180910390f35b3480156101a557600080fd5b506100896004356103ac565b3480156101bd57600080fd5b506101c6610516565b60408051600160a060020a039092168252519081900360200190f35b3480156101ee57600080fd5b506101fa600435610525565b005b34801561020857600080fd5b506102116108b1565b60408051918252519081900360200190f35b60008181526001602081815260408084208054600382015460048301548387018054865160026101009a8316159a909a0260001901909116899004601f810189900489028201890190975286815260609889988b988998899890979096938801949093600160a060020a038116937401000000000000000000000000000000000000000090910460ff169287918301828280156103015780601f106102d657610100808354040283529160200191610301565b820191906000526020600020905b8154815290600101906020018083116102e457829003601f168201915b5050875460408051602060026001851615610100026000190190941693909304601f8101849004840282018401909252818152959a508994509250840190508282801561038f5780601f106103645761010080835404028352916020019161038f565b820191906000526020600020905b81548152906001019060200180831161037257829003601f168201915b505050505093509650965096509650965096505091939550919395565b600160208181526000928352604092839020805481840180548651600296821615610100026000190190911695909504601f810185900485028601850190965285855290949193929091908301828280156104485780601f1061041d57610100808354040283529160200191610448565b820191906000526020600020905b81548152906001019060200180831161042b57829003601f168201915b50505060028085018054604080516020601f60001961010060018716150201909416959095049283018590048502810185019091528181529596959450909250908301828280156104da5780601f106104af576101008083540402835291602001916104da565b820191906000526020600020905b8154815290600101906020018083116104bd57829003601f168201915b505050506003830154600490930154919291600160a060020a038116915074010000000000000000000000000000000000000000900460ff1686565b600254600160a060020a031681565b6000818152600160205260408120908211801561054457506000548211155b151561059a576040805160e560020a62461bcd02815260206004820152600e60248201527f496e76616c696420617274204944000000000000000000000000000000000000604482015290519081900360640190fd5b600481015474010000000000000000000000000000000000000000900460ff161561060f576040805160e560020a62461bcd02815260206004820152601860248201527f417274206974656d20697320616c726561647920736f6c640000000000000000604482015290519081900360640190fd5b6003810154600254604080517f70a082310000000000000000000000000000000000000000000000000000000081523360048201529051600160a060020a03909216916370a08231916024808201926020929091908290030181600087803b15801561067a57600080fd5b505af115801561068e573d6000803e3d6000fd5b505050506040513d60208110156106a457600080fd5b50511015610722576040805160e560020a62461bcd02815260206004820152602b60248201527f4e6f7420656e6f75676820746f6b656e7320746f20707572636861736520746860448201527f697320617274206974656d000000000000000000000000000000000000000000606482015290519081900360840190fd5b6002546003820154604080517f23b872dd000000000000000000000000000000000000000000000000000000008152336004820152306024820152604481019290925251600160a060020a03909216916323b872dd916064808201926020929091908290030181600087803b15801561079a57600080fd5b505af11580156107ae573d6000803e3d6000fd5b505050506040513d60208110156107c457600080fd5b5051151561081c576040805160e560020a62461bcd02815260206004820152601560248201527f546f6b656e207472616e73666572206661696c65640000000000000000000000604482015290519081900360640190fd5b600481018054740100000000000000000000000000000000000000003373ffffffffffffffffffffffffffffffffffffffff19909216821774ff00000000000000000000000000000000000000001916179091556003820154604080519182525184917f09cc7029faf4d636210031bcf7bfee46a9ef4ba189b8a930566d795177df6ac5916020918190039190910190a35050565b600054815600a165627a7a7230582075d84f0c43aa69403be980c0fb26816ab5695928da97239d9b92fd809ae5dfae0029",
  "source": "pragma solidity ^0.4.24;\n\ncontract DappToken {\n    function transferFrom(address _from, address _to, uint256 _value) public returns (bool success);\n    function balanceOf(address _owner) public view returns (uint256 balance);\n}\n\ncontract ArtMarketplace {\n    struct ArtItem {\n        uint256 id;\n        string name;\n        string description;\n        uint256 price;\n        address owner;\n        bool isSold;\n    }\n\n    uint256 public artCount = 0;\n    mapping(uint256 => ArtItem) public artItems;\n\n    DappToken public tokenContract;\n\n    event ArtPurchased(uint256 indexed artId, address indexed buyer, uint256 price);\n\n    constructor(DappToken _tokenContract) public {\n        tokenContract = _tokenContract;\n        _createArtItem(\"Mona Lisa\", \"A masterpiece by Leonardo da Vinci\", 100);\n        _createArtItem(\"Starry Night\", \"A famous painting by Vincent van Gogh\", 80);\n        _createArtItem(\"The Scream\", \"An iconic work by Edvard Munch\", 60);\n    }\n\n    function _createArtItem(string _name, string _description, uint256 _price) internal {\n        artCount++;\n        artItems[artCount] = ArtItem(artCount, _name, _description, _price, address(this), false);\n    }\n\n    function purchaseArt(uint256 _artId) public {\n        ArtItem storage art = artItems[_artId];\n        require(_artId > 0 && _artId <= artCount, \"Invalid art ID\");\n        require(!art.isSold, \"Art item is already sold\");\n        require(tokenContract.balanceOf(msg.sender) >= art.price, \"Not enough tokens to purchase this art item\");\n\n        // Transfer tokens from buyer to the marketplace (or the seller if applicable)\n        require(tokenContract.transferFrom(msg.sender, address(this), art.price), \"Token transfer failed\");\n\n        // Update ownership and sale status\n        art.owner = msg.sender;\n        art.isSold = true;\n\n        emit ArtPurchased(_artId, msg.sender, art.price);\n    }\n\n    function getArtItem(uint256 _artId) public view returns (\n        uint256 id,\n        string name,\n        string description,\n        uint256 price,\n        address owner,\n        bool isSold\n    ) {\n        ArtItem storage art = artItems[_artId];\n        return (art.id, art.name, art.description, art.price, art.owner, art.isSold);\n    }\n}",
  "sourcePath": "/Users/lauchlan/Desktop/FTEC_FYP/Art-Auction-System-with-Blockchain/contracts/ArtMarketplace.sol",
  "compiler": {
    "name": "solc",
    "version": "0.4.24+commit.e67f0147.Emscripten.clang"
  },
  "schemaVersion": "3.4.16",
  "updatedAt": "2024-10-16T07:25:42.617Z",
  "devdoc": {
    "methods": {}
  },
  "userdoc": {
    "methods": {}
  }
}